{
    "contractName": "ClobPair",
    "abi": [
        {
            "inputs": [
                {
                    "internalType": "address",
                    "name": "_baseToken",
                    "type": "address"
                },
                {
                    "internalType": "address",
                    "name": "_quoteToken",
                    "type": "address"
                },
                {
                    "internalType": "uint32",
                    "name": "_tickSize",
                    "type": "uint32"
                },
                {
                    "internalType": "address",
                    "name": "_vault",
                    "type": "address"
                }
            ],
            "stateMutability": "nonpayable",
            "type": "constructor"
        },
        {
            "inputs": [
                {
                    "internalType": "uint256",
                    "name": "errorCode",
                    "type": "uint256"
                }
            ],
            "name": "DirtyUint64Error",
            "type": "error"
        },
        {
            "inputs": [
                {
                    "internalType": "uint256",
                    "name": "errorCode",
                    "type": "uint256"
                }
            ],
            "name": "PackedUint256Error",
            "type": "error"
        },
        {
            "inputs": [],
            "name": "ReentrancyGuardReentrantCall",
            "type": "error"
        },
        {
            "inputs": [
                {
                    "internalType": "uint256",
                    "name": "errorCode",
                    "type": "uint256"
                }
            ],
            "name": "SegmentedSegmentTreeError",
            "type": "error"
        },
        {
            "anonymous": false,
            "inputs": [
                {
                    "indexed": true,
                    "internalType": "bytes32",
                    "name": "orderHash",
                    "type": "bytes32"
                },
                {
                    "indexed": true,
                    "internalType": "address",
                    "name": "maker",
                    "type": "address"
                },
                {
                    "indexed": false,
                    "internalType": "uint64",
                    "name": "orderId",
                    "type": "uint64"
                }
            ],
            "name": "OrderCancelled",
            "type": "event"
        },
        {
            "anonymous": false,
            "inputs": [
                {
                    "indexed": true,
                    "internalType": "bytes32",
                    "name": "orderHash",
                    "type": "bytes32"
                },
                {
                    "indexed": true,
                    "internalType": "address",
                    "name": "maker",
                    "type": "address"
                },
                {
                    "indexed": true,
                    "internalType": "address",
                    "name": "taker",
                    "type": "address"
                },
                {
                    "indexed": false,
                    "internalType": "uint128",
                    "name": "fillBase",
                    "type": "uint128"
                },
                {
                    "indexed": false,
                    "internalType": "uint128",
                    "name": "fillQuote",
                    "type": "uint128"
                },
                {
                    "indexed": false,
                    "internalType": "uint256",
                    "name": "price",
                    "type": "uint256"
                },
                {
                    "indexed": false,
                    "internalType": "bool",
                    "name": "isFinal",
                    "type": "bool"
                }
            ],
            "name": "OrderFilled",
            "type": "event"
        },
        {
            "anonymous": false,
            "inputs": [
                {
                    "indexed": true,
                    "internalType": "bytes32",
                    "name": "orderHash",
                    "type": "bytes32"
                },
                {
                    "components": [
                        {
                            "internalType": "address",
                            "name": "maker",
                            "type": "address"
                        },
                        {
                            "internalType": "address",
                            "name": "baseToken",
                            "type": "address"
                        },
                        {
                            "internalType": "address",
                            "name": "quoteToken",
                            "type": "address"
                        },
                        {
                            "internalType": "uint256",
                            "name": "baseAmount",
                            "type": "uint256"
                        },
                        {
                            "internalType": "uint256",
                            "name": "price",
                            "type": "uint256"
                        },
                        {
                            "internalType": "bool",
                            "name": "isSellBase",
                            "type": "bool"
                        },
                        {
                            "internalType": "uint256",
                            "name": "expiry",
                            "type": "uint256"
                        },
                        {
                            "internalType": "uint256",
                            "name": "nonce",
                            "type": "uint256"
                        }
                    ],
                    "indexed": false,
                    "internalType": "struct OrderStructs.LimitOrder",
                    "name": "order",
                    "type": "tuple"
                },
                {
                    "indexed": false,
                    "internalType": "uint64",
                    "name": "orderId",
                    "type": "uint64"
                }
            ],
            "name": "OrderPlaced",
            "type": "event"
        },
        {
            "inputs": [],
            "name": "baseToken",
            "outputs": [
                {
                    "internalType": "address",
                    "name": "",
                    "type": "address"
                }
            ],
            "stateMutability": "view",
            "type": "function"
        },
        {
            "inputs": [
                {
                    "components": [
                        {
                            "internalType": "address",
                            "name": "maker",
                            "type": "address"
                        },
                        {
                            "internalType": "address",
                            "name": "baseToken",
                            "type": "address"
                        },
                        {
                            "internalType": "address",
                            "name": "quoteToken",
                            "type": "address"
                        },
                        {
                            "internalType": "uint256",
                            "name": "baseAmount",
                            "type": "uint256"
                        },
                        {
                            "internalType": "uint256",
                            "name": "price",
                            "type": "uint256"
                        },
                        {
                            "internalType": "bool",
                            "name": "isSellBase",
                            "type": "bool"
                        },
                        {
                            "internalType": "uint256",
                            "name": "expiry",
                            "type": "uint256"
                        },
                        {
                            "internalType": "uint256",
                            "name": "nonce",
                            "type": "uint256"
                        }
                    ],
                    "internalType": "struct OrderStructs.LimitOrder",
                    "name": "order",
                    "type": "tuple"
                }
            ],
            "name": "cancelOrder",
            "outputs": [],
            "stateMutability": "nonpayable",
            "type": "function"
        },
        {
            "inputs": [
                {
                    "internalType": "bytes32",
                    "name": "orderHash",
                    "type": "bytes32"
                }
            ],
            "name": "cancelOrderByHash",
            "outputs": [],
            "stateMutability": "nonpayable",
            "type": "function"
        },
        {
            "inputs": [],
            "name": "factory",
            "outputs": [
                {
                    "internalType": "address",
                    "name": "",
                    "type": "address"
                }
            ],
            "stateMutability": "view",
            "type": "function"
        },
        {
            "inputs": [],
            "name": "getBestAsk",
            "outputs": [
                {
                    "internalType": "bool",
                    "name": "exists",
                    "type": "bool"
                },
                {
                    "internalType": "uint256",
                    "name": "price",
                    "type": "uint256"
                },
                {
                    "internalType": "uint128",
                    "name": "totalBase",
                    "type": "uint128"
                }
            ],
            "stateMutability": "view",
            "type": "function"
        },
        {
            "inputs": [],
            "name": "getBestBid",
            "outputs": [
                {
                    "internalType": "bool",
                    "name": "exists",
                    "type": "bool"
                },
                {
                    "internalType": "uint256",
                    "name": "price",
                    "type": "uint256"
                },
                {
                    "internalType": "uint128",
                    "name": "totalBase",
                    "type": "uint128"
                }
            ],
            "stateMutability": "view",
            "type": "function"
        },
        {
            "inputs": [
                {
                    "internalType": "bytes32",
                    "name": "orderHash",
                    "type": "bytes32"
                }
            ],
            "name": "getOrderInfo",
            "outputs": [
                {
                    "components": [
                        {
                            "internalType": "bytes32",
                            "name": "orderHash",
                            "type": "bytes32"
                        },
                        {
                            "internalType": "enum OrderStructs.OrderStatus",
                            "name": "status",
                            "type": "uint8"
                        },
                        {
                            "internalType": "uint256",
                            "name": "filledBase",
                            "type": "uint256"
                        },
                        {
                            "internalType": "uint256",
                            "name": "createdAt",
                            "type": "uint256"
                        }
                    ],
                    "internalType": "struct OrderStructs.OrderInfo",
                    "name": "info",
                    "type": "tuple"
                }
            ],
            "stateMutability": "view",
            "type": "function"
        },
        {
            "inputs": [],
            "name": "getPairInfo",
            "outputs": [
                {
                    "internalType": "address",
                    "name": "",
                    "type": "address"
                },
                {
                    "internalType": "address",
                    "name": "",
                    "type": "address"
                },
                {
                    "internalType": "uint32",
                    "name": "",
                    "type": "uint32"
                }
            ],
            "stateMutability": "view",
            "type": "function"
        },
        {
            "inputs": [
                {
                    "internalType": "uint256",
                    "name": "price",
                    "type": "uint256"
                }
            ],
            "name": "getPriceLevel",
            "outputs": [
                {
                    "internalType": "uint128",
                    "name": "totalBase",
                    "type": "uint128"
                },
                {
                    "internalType": "uint64",
                    "name": "orderCount",
                    "type": "uint64"
                }
            ],
            "stateMutability": "view",
            "type": "function"
        },
        {
            "inputs": [
                {
                    "internalType": "address",
                    "name": "user",
                    "type": "address"
                }
            ],
            "name": "getUserOrders",
            "outputs": [
                {
                    "internalType": "bytes32[]",
                    "name": "",
                    "type": "bytes32[]"
                }
            ],
            "stateMutability": "view",
            "type": "function"
        },
        {
            "inputs": [],
            "name": "getVault",
            "outputs": [
                {
                    "internalType": "address",
                    "name": "",
                    "type": "address"
                }
            ],
            "stateMutability": "view",
            "type": "function"
        },
        {
            "inputs": [
                {
                    "internalType": "bytes32",
                    "name": "",
                    "type": "bytes32"
                }
            ],
            "name": "orderHashToId",
            "outputs": [
                {
                    "internalType": "uint64",
                    "name": "",
                    "type": "uint64"
                }
            ],
            "stateMutability": "view",
            "type": "function"
        },
        {
            "inputs": [
                {
                    "internalType": "uint64",
                    "name": "",
                    "type": "uint64"
                }
            ],
            "name": "orderIdToHash",
            "outputs": [
                {
                    "internalType": "bytes32",
                    "name": "",
                    "type": "bytes32"
                }
            ],
            "stateMutability": "view",
            "type": "function"
        },
        {
            "inputs": [
                {
                    "internalType": "uint64",
                    "name": "",
                    "type": "uint64"
                }
            ],
            "name": "orderIsBid",
            "outputs": [
                {
                    "internalType": "bool",
                    "name": "",
                    "type": "bool"
                }
            ],
            "stateMutability": "view",
            "type": "function"
        },
        {
            "inputs": [
                {
                    "internalType": "uint64",
                    "name": "",
                    "type": "uint64"
                }
            ],
            "name": "orderTickIndex",
            "outputs": [
                {
                    "internalType": "uint32",
                    "name": "",
                    "type": "uint32"
                }
            ],
            "stateMutability": "view",
            "type": "function"
        },
        {
            "inputs": [
                {
                    "components": [
                        {
                            "internalType": "address",
                            "name": "maker",
                            "type": "address"
                        },
                        {
                            "internalType": "address",
                            "name": "baseToken",
                            "type": "address"
                        },
                        {
                            "internalType": "address",
                            "name": "quoteToken",
                            "type": "address"
                        },
                        {
                            "internalType": "uint256",
                            "name": "baseAmount",
                            "type": "uint256"
                        },
                        {
                            "internalType": "uint256",
                            "name": "price",
                            "type": "uint256"
                        },
                        {
                            "internalType": "bool",
                            "name": "isSellBase",
                            "type": "bool"
                        },
                        {
                            "internalType": "uint256",
                            "name": "expiry",
                            "type": "uint256"
                        },
                        {
                            "internalType": "uint256",
                            "name": "nonce",
                            "type": "uint256"
                        }
                    ],
                    "internalType": "struct OrderStructs.LimitOrder",
                    "name": "order",
                    "type": "tuple"
                }
            ],
            "name": "placeLimitOrder",
            "outputs": [
                {
                    "internalType": "bytes32",
                    "name": "orderHash",
                    "type": "bytes32"
                },
                {
                    "internalType": "uint64",
                    "name": "orderId",
                    "type": "uint64"
                }
            ],
            "stateMutability": "nonpayable",
            "type": "function"
        },
        {
            "inputs": [],
            "name": "quoteToken",
            "outputs": [
                {
                    "internalType": "address",
                    "name": "",
                    "type": "address"
                }
            ],
            "stateMutability": "view",
            "type": "function"
        },
        {
            "inputs": [],
            "name": "tickSize",
            "outputs": [
                {
                    "internalType": "uint32",
                    "name": "",
                    "type": "uint32"
                }
            ],
            "stateMutability": "view",
            "type": "function"
        },
        {
            "inputs": [],
            "name": "vault",
            "outputs": [
                {
                    "internalType": "address",
                    "name": "",
                    "type": "address"
                }
            ],
            "stateMutability": "view",
            "type": "function"
        }
    ],
    "bytecode": "6101203461034757601f6142b938819003918201601f19168301916001600160401b0383118484101761034b57808492608094604052833981010312610347576100488161035f565b6100546020830161035f565b60408301519163ffffffff831693848403610347576060610075910161035f565b60015f55936001600160a01b03821680151580610335575b15610301576001600160a01b038416146102c95715610293576001600160a01b038416156102615760805260a05260c05260e0523361010052604051613f459081610374823960805181818161018e015281816102a601528181610c8a015281816110a9015281816112c20152818161167901528181611a62015281816123b30152612882015260a051818181610d3d01528181611157015281816114430152818161172c01528181611be301528181611d9001528181611f2a015281816123d8015281816124f201526129f6015260c05181818161010d01528181610240015281816103bd015281816104df01528181611f9b015281816120430152818161213d015281816122110152818161240401526124a4015260e05181818161033401528181610c4101528181610cb901528181610cf501528181610d6b0152818161105f015281816110d70152818161110f0152818161118501528181611281015281816112f0015281816114020152818161147101528181611631015281816116a8015281816116e40152818161175a01528181611a2101528181611a9001528181611ba201528181611c1101528181611d3b01528181612831015281816129aa0152612da1015261010051816101d20152f35b60405162461bcd60e51b815260206004820152600a60248201526916915493d7d59055531560b21b6044820152606490fd5b60405162461bcd60e51b815260206004820152600e60248201526d5a45524f5f5449434b5f53495a4560901b6044820152606490fd5b60405162461bcd60e51b815260206004820152601060248201526f4944454e544943414c5f544f4b454e5360801b6044820152606490fd5b60405162461bcd60e51b815260206004820152600c60248201526b5a45524f5f4144445245535360a01b6044820152606490fd5b506001600160a01b038416151561008d565b5f80fd5b634e487b7160e01b5f52604160045260245ffd5b51906001600160a01b03821682036103475756fe60806040526004361015610011575f80fd5b5f5f3560e01c908162b2e678146125615781631216ff5e14612521578163217a4b70146124dd5781632225cf311461243057816356b35b0e1461239557816363c69f08146122e15781636e9b8c45146122a6578163768c6ec01461223f578163800a4bfe1461210c578163841d9ab7146120da578163892232fe1461207c5781638d928af8146100ec57816398121e1614611fcb578163c1a7fd6014610201578163c45a0155146101bd578163c55dae6314610179578163f19f322414610134578163f210d087146100f1575063fbfa77cf146100ec575f80fd5b612d8c565b34610131578060031936011261013157602060405163ffffffff7f0000000000000000000000000000000000000000000000000000000000000000168152f35b80fd5b34610131576020366003190112610131576004356001600160401b0381168091036101755760408263ffffffff926020945260108452205416604051908152f35b5080fd5b346101315780600319360112610131576040517f00000000000000000000000000000000000000000000000000000000000000006001600160a01b03168152602090f35b346101315780600319360112610131576040517f00000000000000000000000000000000000000000000000000000000000000006001600160a01b03168152602090f35b34610131576101003660031901126101315761021b613148565b60843515801580611f8d575b61023090613007565b61026f617fff61026863ffffffff7f000000000000000000000000000000000000000000000000000000000000000016608435612e35565b1115613043565b816102786130a0565b336001600160a01b0390911603611f58576024356001600160a01b0381169003611cc0576001600160a01b037f00000000000000000000000000000000000000000000000000000000000000008116929060243516831480611f11575b15611edb576102e760643515156130b6565b6102fb6001600160401b0360c43516613450565b611eac5761030761346d565b92838552600d6020526001600160401b03604086205416611e7557849161032c6130f0565b15611cd357507f00000000000000000000000000000000000000000000000000000000000000006001600160a01b0316906103656130a0565b90823b15611ccf5760405163f460f9bb60e01b81526001600160a01b0390921660048301526024820152606480356044830152909183918391829084905af18015611cc457611cab575b50505b63ffffffff6103e5817f000000000000000000000000000000000000000000000000000000000000000016608435612e35565b166001600160801b036064351690816103fc6130f0565b156114f9576104096130a0565b90916180005b6001600160801b038416610b43575b5050506001600160801b039161043861043e925b826130ff565b906130ff565b1680610462575b506001600160401b03906001604094558351928352166020820152f35b604051915061047082612e53565b610478612d62565b82526024356020830152604435906001600160a01b0382168203610b3f578160408401526064356060840152608435608084015260a435908115158203610b3b578160a085015260c43560c085015260e43560e0850152606084015263ffffffff610507817f000000000000000000000000000000000000000000000000000000000000000016608435612e35565b16906105116130f0565b156108e457818652600b602052604086206001600160401b03600c5416946001600160401b0386146108d0576001600160801b03600181606081946001600160401b03848c01166001600160401b0319600c541617600c55600287016001600160401b03858d01165f528060205260405f20858060a01b03835116868201906bffffffffffffffffffffffff60a01b8254161790558484840151168560028301911686198254161790556080830151600382015560a083015115156105e66004830191829060ff801983541691151516179055565b60e0840151815468ffffffffffffffff0067ffffffffffffffff60481b60c088015160481b169260081b1690610100600160881b031916171790556001600160401b03895460401c1680155f14610882575050506001600160401b03848c01166001600160401b0319885416178755610661848c0188613166565b865467ffffffffffffffff60801b198116608091821c6001600160401b0316860190911b67ffffffffffffffff60801b16178755015116930192818454160116166001600160801b0319825416178155546001600160401b036001600160801b03821611155f14610871576001600160401b036106e291165b836007613537565b506001600160401b0360018086019501168652600f6020526040862060ff1981541690555b848652600d60209081526040808820805467ffffffffffffffff19166001600160401b038816908117909155808952600e835281892088905580895260109092528720805463ffffffff19169093179092556001600160a01b036107696130a0565b1686526011602052604086208054906801000000000000000082101561085d5761079d826107b39260018a9501815561311f565b819391549060031b91821b915f19901b19161790565b9055604051926004356001600160a01b03811690819003610859576101208560019560409a958a957f623ed031b0cca5c1032238f71eb27457faeba124a2de0cf977d3c6a910890d5e956001600160401b039b9a52888060a01b03602435166020850152888060a01b03168c84015260643560608401526084356080840152151560a083015260c43560c083015260e43560e0830152610100820152a294505090610445565b8780fd5b634e487b7160e01b88526041600452602488fd5b506106e26001600160401b036106da565b6001600160401b03166001600160401b03198254161790556001600160401b0380895460401c16165f526020526108bf60405f20858d0190613166565b6108cb848c0188613166565b610661565b634e487b7160e01b88526011600452602488fd5b8186526005602052604086206001600160401b0360065416946001600160401b0386146108d0576001600160801b03600181606081946001600160401b03848c01166001600160401b03196006541617600655600287016001600160401b03858d01165f528060205260405f20858060a01b03835116868201906bffffffffffffffffffffffff60a01b8254161790558484840151168560028301911686198254161790556080830151600382015560a083015115156109b46004830191829060ff801983541691151516179055565b60e0840151815468ffffffffffffffff0067ffffffffffffffff60481b60c088015160481b169260081b1690610100600160881b031916171790556001600160401b03895460401c1680155f14610aed575050506001600160401b03848c01166001600160401b0319885416178755610a2f848c0188613166565b865467ffffffffffffffff60801b198116608091821c6001600160401b0316860190911b67ffffffffffffffff60801b16178755015116930192818454160116166001600160801b0319825416178155546001600160401b036001600160801b03821611155f14610adc576001600160401b03610ab091165b836001613537565b506001600160401b0360018086019501168652600f60205260408620600160ff19825416179055610707565b50610ab06001600160401b03610aa8565b6001600160401b03166001600160401b03198254161790556001600160401b0380895460401c16165f52602052610b2a60405f20858d0190613166565b610b36848c0188613166565b610a2f565b8580fd5b8480fd5b87939294959750610b5a63ffffffff821683613797565b9790156114ec5763ffffffff8816855260056020526040852080546001600160401b031699909897945b6001600160401b038b161515806114da575b156114ca576001600160401b038b165f5260028a0160205260405f20610bcb6001600160401b03600483015460481c16613450565b611235576001600160801b036002820154166001600160801b03831681115f1461122f5750819b5b8c6001600160801b03670de0b6b3a7640000610c3060018060a01b036001870154169383600388015491610c2a82821615156130b6565b16612e0e565b04169081156111fd578a1561105d577f00000000000000000000000000000000000000000000000000000000000000006001600160a01b03163b1561103957610cb48f8c908e604051938492839263012f535b60e31b84527f0000000000000000000000000000000000000000000000000000000000000000908860048601613edc565b0381837f00000000000000000000000000000000000000000000000000000000000000006001600160a01b03165af1801561105257908c9161103d575b50507f00000000000000000000000000000000000000000000000000000000000000006001600160a01b03163b15611039578b8b91610d66604051948593849363012f535b60e31b85527f00000000000000000000000000000000000000000000000000000000000000009160048601613edc565b0381837f00000000000000000000000000000000000000000000000000000000000000006001600160a01b03165af1801561102e57611015575b50899a9b9c5b6001600160401b0382168a52600e602052610e638160408c2054956001600160801b0382166001600160801b03600288015416149e8f90887fcacc8154ddb5edc14a9ee062106483bc7418eca3566f3f2f79516cddc7e2e3eb608060018060a01b0360018c0154169360038c0154956001600160801b03670de0b6b3a7640000610e3289838d16612e0e565b041696604051976001600160801b038b16895260208901526040880152606087015260018060a01b031694a46130ff565b9b15610ef7575091816001600160401b0384610e8c8f9683610eec975460401c1697600161318e565b50838c52600d60209081526040808e208054851916905591909216808d52600e8352818d208d9055808d52600f8352818d20805460ff191690558c5260109091528a20805463ffffffff19169055600101546001600160a01b031661339e565b945b94999897610b84565b9250939a929994979b50508a9795975063ffffffff82168b5260056020526001600160401b0360408c2093165f5260028301602052600260405f2001926001600160801b03845416936001600160801b0383168510610fd75760016001600160801b03928392838087610fbb9a03161684198254161790550192818454160316166001600160801b0319825416178155546001600160401b036001600160801b03821611155f14610fc3576001600160401b0363ffffffff9116915b166001613537565b505b9261040f565b5063ffffffff6001600160401b0391610fb3565b60405162461bcd60e51b8152602060048201526016602482015275494e53554646494349454e545f52454d41494e494e4760501b6044820152606490fd5b6110208a8092612e9e565b61102a578d610da0565b8880fd5b6040513d8c823e3d90fd5b8a80fd5b8161104791612e9e565b611039578a5f610cf1565b6040513d8e823e3d90fd5b7f00000000000000000000000000000000000000000000000000000000000000006001600160a01b03163b156111f9576110d28f5f908e604051938492839263012f535b60e31b8452877f00000000000000000000000000000000000000000000000000000000000000009160048601613edc565b0381837f00000000000000000000000000000000000000000000000000000000000000006001600160a01b03165af180156111ee576111d9575b507f00000000000000000000000000000000000000000000000000000000000000006001600160a01b03163b15611039578a908c611180604051948593849363012f535b60e31b85527f00000000000000000000000000000000000000000000000000000000000000009160048601613edc565b0381837f00000000000000000000000000000000000000000000000000000000000000006001600160a01b03165af1801561102e576111c4575b50899a9b9c610da6565b6111cf8a8092612e9e565b61102a578d6111ba565b6111e6919b505f90612e9e565b5f998f61110c565b6040513d5f823e3d90fd5b5f80fd5b60405162461bcd60e51b815260206004820152600a6024820152695a45524f5f51554f544560b01b6044820152606490fd5b9b610bf3565b6001600160401b03909b91999a9b5460401c1690611255818c600161318e565b60a0810151156113c457604081015160608201516001600160801b0316906001600160a01b03908116907f0000000000000000000000000000000000000000000000000000000000000000163b156110395760405163282541cf60e21b8152918b91839182916112eb91907f00000000000000000000000000000000000000000000000000000000000000009060048501612ebf565b0381837f00000000000000000000000000000000000000000000000000000000000000006001600160a01b03165af1801561102e57908a916113af575b5050906113a9915b6001600160401b0391909116808a52600e60208181526040808d2054808e52600d8352818e20805467ffffffffffffffff19169055848e52928252808d208d9055838d52600f8252808d20805460ff19169055928c5260109052818b20805463ffffffff191690559101516001600160a01b031661339e565b94610eee565b816113b991612e9e565b61102a57888e611328565b6001600160801b03670de0b6b3a76400006113ea82606085015116608085015190612e0e565b041660018060a01b0360408301511660018060a01b037f0000000000000000000000000000000000000000000000000000000000000000163b156110395760405163282541cf60e21b8152918b918391829161146c91907f00000000000000000000000000000000000000000000000000000000000000009060048501612ebf565b0381837f00000000000000000000000000000000000000000000000000000000000000006001600160a01b03165af1801561102e57908a916114b5575b5050906113a991611330565b816114bf91612e9e565b61102a57888e6114a9565b9295995096509650939193610fbd565b506001600160801b0381161515610b96565b965082939795945061041e565b6115016130a0565b90915b6001600160801b03831661152a575b50506001600160801b039161043861043e92610432565b8692919395965063ffffffff6001820111611c975761155163ffffffff6001830116613890565b969015611c8b57839592955063ffffffff87168452600b60205260408420976001600160401b038954165b6001600160401b038116151580611c79575b15611c6a576001600160401b0381165f5260028a0160205260405f206115c36001600160401b03600483015460481c16613450565b6119db576001600160801b036002820154166001600160801b038a1681115f146119d5575088915b60018060a01b036001830154166001600160801b03670de0b6b3a7640000611626600386015461161e84891615156130b6565b838816612e0e565b04169081156111fd577f00000000000000000000000000000000000000000000000000000000000000006001600160a01b03163b156119b1576116a38a868d604051938492839263012f535b60e31b84527f0000000000000000000000000000000000000000000000000000000000000000908860048601613edc565b0381837f00000000000000000000000000000000000000000000000000000000000000006001600160a01b03165af180156119ca57908b916119b5575b50507f00000000000000000000000000000000000000000000000000000000000000006001600160a01b03163b156119b1578a8a91611755604051948593849363012f535b60e31b85527f00000000000000000000000000000000000000000000000000000000000000009160048601613edc565b0381837f00000000000000000000000000000000000000000000000000000000000000006001600160a01b03165af180156119a657908991611991575b50506001600160401b0381168852600e602052604088205492611820816001600160801b0381166001600160801b03600287015416149c8d8d887fcacc8154ddb5edc14a9ee062106483bc7418eca3566f3f2f79516cddc7e2e3eb608060018060a01b0360018c0154169360038c0154956001600160801b03670de0b6b3a7640000610e3289838d16612e0e565b9a156118b1575091816001600160401b03846118498e96836118a9975460401c1697600761318e565b50838b52600d60209081526040808d208054851916905591909216808c52600e8352818c208c9055808c52600f8352818c20805460ff191690558b5260109091528920805463ffffffff19169055600101546001600160a01b031661339e565b935b9361157c565b92509397959894969a5050899891985063ffffffff82168a52600b6020526001600160401b0360408b2093165f5260028301602052600260405f2001926001600160801b03845416936001600160801b0383168510610fd75760016001600160801b039283928380876119759a03161684198254161790550192818454160316166001600160801b0319825416178155546001600160401b036001600160801b03821611155f1461197d576001600160401b0363ffffffff9116915b166007613537565b505b91611504565b5063ffffffff6001600160401b039161196d565b8161199b91612e9e565b61085957878d611792565b6040513d8b823e3d90fd5b8980fd5b816119bf91612e9e565b6119b157898f6116e0565b6040513d8d823e3d90fd5b916115eb565b5460401c6001600160401b0316906119f5818b600761318e565b60a081015115611b6457604081015160608201516001600160801b0316906001600160a01b03908116907f0000000000000000000000000000000000000000000000000000000000000000163b156119b15760405163282541cf60e21b8152918a9183918291611a8b91907f00000000000000000000000000000000000000000000000000000000000000009060048501612ebf565b0381837f00000000000000000000000000000000000000000000000000000000000000006001600160a01b03165af180156119a657908991611b4f575b505090611b49915b6001600160401b0391909116808952600e60208181526040808c2054808d52600d8352818d20805467ffffffffffffffff19169055848d52928252808c208c9055838c52600f8252808c20805460ff19169055928b5260109052818a20805463ffffffff191690559101516001600160a01b031661339e565b936118ab565b81611b5991612e9e565b61085957878d611ac8565b6001600160801b03670de0b6b3a7640000611b8a82606085015116608085015190612e0e565b041660018060a01b0360408301511660018060a01b037f0000000000000000000000000000000000000000000000000000000000000000163b156119b15760405163282541cf60e21b8152918a9183918291611c0c91907f00000000000000000000000000000000000000000000000000000000000000009060048501612ebf565b0381837f00000000000000000000000000000000000000000000000000000000000000006001600160a01b03165af180156119a657908991611c55575b505090611b4991611ad0565b81611c5f91612e9e565b61085957878d611c49565b50965093919490929650611977565b506001600160801b038816151561158e565b93508192969550611513565b634e487b7160e01b83526011600452602483fd5b81611cb591612e9e565b611cc05782846103af565b8280fd5b6040513d84823e3d90fd5b8380fd5b91905050611e61576084356001600160801b0304670de0b6b3a7640000810290808204670de0b6b3a76400001490151715611e4d5760643511611e1d576001600160801b03670de0b6b3a7640000611d2f608435606435612e0e565b04168015611de45783907f00000000000000000000000000000000000000000000000000000000000000006001600160a01b031690611d6c6130a0565b90823b15611ccf57611db99284928360405180968195829463f460f9bb60e01b84527f00000000000000000000000000000000000000000000000000000000000000009060048501612ebf565b03925af18015611cc457611dcf575b50506103b2565b81611dd991612e9e565b611cc0578284611dc8565b60405162461bcd60e51b815260206004820152601160248201527016915493d7d45553d51157d39151511151607a1b6044820152606490fd5b60405162461bcd60e51b81526020600482015260086024820152674f564552464c4f5760c01b6044820152606490fd5b634e487b7160e01b84526011600452602484fd5b634e487b7160e01b83526012600452602483fd5b60405162461bcd60e51b815260206004820152600f60248201526e222aa82624a1a0aa22afa7a92222a960891b6044820152606490fd5b60405162461bcd60e51b81526020600482015260076024820152661156141254915160ca1b6044820152606490fd5b60405162461bcd60e51b815260206004820152600e60248201526d494e56414c49445f544f4b454e5360901b6044820152606490fd5b506044356001600160a01b03811690818103610b3b57507f00000000000000000000000000000000000000000000000000000000000000006001600160a01b0316146102d5565b60405162461bcd60e51b815260206004820152600d60248201526c24a72b20a624a22fa6a0a5a2a960991b6044820152606490fd5b50610230611fc363ffffffff7f000000000000000000000000000000000000000000000000000000000000000016608435612ffd565b159050610227565b346101315780600319360112610131578080611fe8618000613890565b81939161201d575b505060408051921515835260208301939093526001600160801b03169181019190915280606081015b0390f35b6001600160801b039194506120199250604063ffffffff600192169561206963ffffffff7f00000000000000000000000000000000000000000000000000000000000000001688612e0e565b968152600b602052200154169084611ff0565b3461013157610100366003190112610131578061209761346d565b303b156120d7576040519062165ccf60e31b82526004820152818160248183305af18015611cc4576120c65750f35b816120d091612e9e565b6101315780f35b50fd5b34610131576020366003190112610131576001600160401b0360406020926004358152600d8452205416604051908152f35b346101315760203660031901126101315763ffffffff61217360043580151580612207575b61213a90613007565b827f0000000000000000000000000000000000000000000000000000000000000000169061216e617fff6102688484612e35565b612e35565b1690818152600560205260408120918152600b60205260408120916001600160801b036001820154166001600160801b0360018501541601916001600160801b0383116121f357506121dd6040936001600160401b038080945460801c16915460801c1690613080565b6001600160801b03845193168352166020820152f35b634e487b7160e01b81526011600452602490fd5b5061213a612237847f00000000000000000000000000000000000000000000000000000000000000001683612ffd565b159050612131565b346101315760203660031901126101315761225b600435612ee9565b9060405190825182526020830151906005821015612292575060809260609160208401526040810151604084015201516060820152f35b634e487b7160e01b81526021600452602490fd5b34610131576020366003190112610131576004356001600160401b038116809103610175578160409160209352600e83522054604051908152f35b34610131576020366003190112610131576001600160a01b03612302612d62565b168152601160205260408120604051908160208254918281520190819285526020852090855b81811061237f575050508261233e910383612e9e565b604051928392602084019060208552518091526040840192915b818110612366575050500390f35b8251845285945060209384019390920191600101612358565b8254845260209093019260019283019201612328565b34610131578060031936011261013157604080516001600160a01b037f0000000000000000000000000000000000000000000000000000000000000000811682527f000000000000000000000000000000000000000000000000000000000000000016602082015263ffffffff7f00000000000000000000000000000000000000000000000000000000000000001691810191909152606090f35b34610131578060031936011261013157808061244e61800082613797565b9092908361247e57505060408051921515835260208301939093526001600160801b031691810191909152606090f35b6001600160801b039194506120199250604063ffffffff60019216956124ca63ffffffff7f00000000000000000000000000000000000000000000000000000000000000001688612e0e565b9681526005602052200154169084611ff0565b346101315780600319360112610131576040517f00000000000000000000000000000000000000000000000000000000000000006001600160a01b03168152602090f35b34610131576020366003190112610131576004356001600160401b0381168091036101755760408260ff9260209452600f84522054166040519015158152f35b346111f95760203660031901126111f95760043561257d613148565b805f52600d6020526001600160401b0360405f20541661259e811515612dd0565b805f52600f60205260ff60405f205416815f52601060205263ffffffff60405f205416905f14612d3c575f5260056020526001600160401b03600260405f200191165f5260205260405f205b600101546001600160a01b03163303612d0b57805f52600d6020526001600160401b0360405f20541690815f52600f60205260ff60405f205416825f52601060205263ffffffff60405f205416905f14612ad2575f60e060405161264d81612e53565b8281528260208201528260408201528260608201528260808201528260a08201528260c08201520152805f52600560205261280f60405f209160028301926001600160401b0386165f528360205260405f20936001600160801b0380600181818060a01b03828a0154166126c2811515612dd0565b604051998a916126d183612e53565b6001600160401b036004835493828086169586885260401c169384602088015260408701528660028201541695606081019687526080600383015491015201548d60a060ff831615159101528d60c0838360081c1691015260481c1660e08d015281155f14612ab057885467ffffffffffffffff19166001600160401b0382161789555b80612a7f57506127659088613166565b865467ffffffffffffffff60801b198116608091821c6001600160401b03165f190190911b67ffffffffffffffff60801b161787555116940193818554160316166001600160801b03198354161782556001600160401b0387165f526020525f6004604082208281558260018201558260028201558260038201550155546001600160401b036001600160801b03821611155f14612a70576001600160401b0316905b6001613537565b505b60a081015115612975576040810151606082015185916001600160a01b037f00000000000000000000000000000000000000000000000000000000000000008116929116906001600160801b0316823b15611ccf576128ab9284928360405180968195829463282541cf60e21b84527f00000000000000000000000000000000000000000000000000000000000000009060048501612ebf565b03925af18015611cc457612960575b5050602060407f31a05703f8f952c9bd21ca7cb502d057f751fce0090038cf1424a89d6a9fc80c925b848752600d8352818720805467ffffffffffffffff19169055858752600e8352818720879055858752600f8352818720805460ff1916905585875260108352818720805463ffffffff191690550180516129479085906001600160a01b031661339e565b516040519485526001600160a01b031693a36001815580f35b8161296a91612e9e565b611ccf5783856128ba565b6001600160801b03670de0b6b3a764000061299b82606085015116608085015190612e0e565b60408401516001600160a01b037f000000000000000000000000000000000000000000000000000000000000000081169491169290910416823b156111f957612a1f925f928360405180968195829463282541cf60e21b84527f00000000000000000000000000000000000000000000000000000000000000009060048501612ebf565b03925af180156111ee57612a5a575b50602060407f31a05703f8f952c9bd21ca7cb502d057f751fce0090038cf1424a89d6a9fc80c926128e3565b612a679194505f90612e9e565b5f926020612a2e565b506001600160401b0390612808565b6001600160401b03165f52866020526001600160401b0360405f2091166001600160401b0319825416179055612765565b6001600160401b0382165f5287602052612acd8160405f20613166565b612755565b5f60e0604051612ae181612e53565b8281528260208201528260408201528260608201528260808201528260a08201528260c08201520152805f52600b602052612ca360405f209160028301926001600160401b0386165f528360205260405f20936001600160801b0380600181818060a01b03828a015416612b56811515612dd0565b604051998a91612b6583612e53565b6001600160401b036004835493828086169586885260401c169384602088015260408701528660028201541695606081019687526080600383015491015201548d60a060ff831615159101528d60c0838360081c1691015260481c1660e08d015281155f14612ce957885467ffffffffffffffff19166001600160401b0382161789555b80612cb85750612bf99088613166565b865467ffffffffffffffff60801b198116608091821c6001600160401b03165f190190911b67ffffffffffffffff60801b161787555116940193818554160316166001600160801b03198354161782556001600160401b0387165f526020525f6004604082208281558260018201558260028201558260038201550155546001600160401b036001600160801b03821611155f14612ca9576001600160401b0316905b6007613537565b50612811565b506001600160401b0390612c9c565b6001600160401b03165f52866020526001600160401b0360405f2091166001600160401b0319825416179055612bf9565b6001600160401b0382165f5287602052612d068160405f20613166565b612be9565b60405162461bcd60e51b81526020600482015260096024820152682727aa2fa6a0a5a2a960b91b6044820152606490fd5b5f52600b6020526001600160401b03600260405f200191165f5260205260405f206125ea565b600435906001600160a01b03821682036111f957565b35906001600160a01b03821682036111f957565b346111f9575f3660031901126111f9576040517f00000000000000000000000000000000000000000000000000000000000000006001600160a01b03168152602090f35b15612dd757565b60405162461bcd60e51b815260206004820152600f60248201526e13d491115497d393d517d193d55391608a1b6044820152606490fd5b81810292918115918404141715612e2157565b634e487b7160e01b5f52601160045260245ffd5b8115612e3f570490565b634e487b7160e01b5f52601260045260245ffd5b61010081019081106001600160401b03821117612e6f57604052565b634e487b7160e01b5f52604160045260245ffd5b604081019081106001600160401b03821117612e6f57604052565b90601f801991011681019081106001600160401b03821117612e6f57604052565b6001600160a01b039182168152911660208201526001600160801b03909116604082015260600190565b90604051608081018181106001600160401b03821117612e6f576040525f815260208101905f82525f60408201525f606082015280935f52600d6020526001600160401b0360405f205416918215612ff4575050805f52600f60205260ff60405f205416815f52601060205263ffffffff60405f205416905f14612fc1575f5260056020526001600160401b03600260405f200191165f52602052612fa16001600160401b03600460405f205b015460481c16613450565b15612fb657600460208301525b5f6040830152565b5f6020830152612fae565b5f52600b6020526001600160401b03600260405f200191165f52602052612fa16001600160401b03600460405f20612f96565b60039052925050565b8115612e3f570690565b1561300e57565b60405162461bcd60e51b815260206004820152600d60248201526c494e56414c49445f505249434560981b6044820152606490fd5b1561304a57565b60405162461bcd60e51b815260206004820152600e60248201526d0a0a492868abea89e9ebe90928e960931b6044820152606490fd5b906001600160401b03809116911601906001600160401b038211612e2157565b6004356001600160a01b03811681036111f95790565b156130bd57565b60405162461bcd60e51b815260206004820152600b60248201526a16915493d7d05353d5539560aa1b6044820152606490fd5b60a43580151581036111f95790565b906001600160801b03809116911603906001600160801b038211612e2157565b8054821015613134575f5260205f2001905f90565b634e487b7160e01b5f52603260045260245ffd5b60025f54146131575760025f55565b633ee5aeb560e01b5f5260045ffd5b9067ffffffffffffffff60401b82549160401b169067ffffffffffffffff60401b1916179055565b9061334f915f60e06040516131a281612e53565b8281528260208201528260408201528260608201528260808201528260a08201528260c0820152015263ffffffff82165f526004810160205260405f20600281016001600160401b0386165f52806020526001600160401b0360405f20966001600160801b0380600181818060a01b03828d0154169b6132238d1515612dd0565b604051809d61323182612e53565b825491898084169384835260401c1691826020830152604082015260e08a600487600288015416966060850197885260038101546080860152015460ff8116151560a0850152818160081c1660c085015260481c1691015281155f146133835788811689198c5416178b555b8061336757506132ad908a613166565b885467ffffffffffffffff60801b198116608091821c89165f1901891690911b67ffffffffffffffff60801b161789555116960195818754160316166001600160801b0319855416178455165f526020525f6004604082208281558260018201558260028201558260038201550155546001600160401b036001600160801b03821611155f14613353576001600160401b0363ffffffff9116925b1690613537565b5090565b5063ffffffff6001600160401b0392613348565b88165f52886020528760405f20911688198254161790556132ad565b8882165f52896020526133998160405f20613166565b61329d565b6001600160a01b03165f908152601160205260408120905b81548082101561344a57836133cb838561311f565b90549060031b1c146133e057506001016133b6565b919250905f198101908111612e215761079d6133ff61340d928561311f565b90549060031b1c928461311f565b905580548015613436575f190190613425828261311f565b8154905f199060031b1b1916905555565b634e487b7160e01b5f52603160045260245ffd5b50505050565b6001600160401b03168015159081613466575090565b9050421190565b604051602081019060046001600160a01b0361348882612d78565b1683526001600160a01b0361349f60208301612d78565b1660208401526001600160a01b036134b960408301612d78565b166040840152606081013560608401526080810135608084015260a08101359081151582036111f95760e091151560a085015260c081013560c0850152013560e0830152610100815261350e61012082612e9e565b51902090565b80518210156131345760209160051b010190565b60048210156131345701905f90565b9092919261800081101561373b5761354e90613977565b805160031015613134576001600160401b038060808301516003850181515f52602052602060405f205491015160061b1c168015159003948582821683821610155f14613647570316915f5b600481106135a85750505050565b6135b28184613514565b51906135be8184613528565b5082515f5260205260405f2054916020810151926135dc8482613a11565b8015016001600160401b0388820391818316918291161090811561363e575b5061362a5760019461360c92613a3e565b906136178386613528565b5090515f5260205260405f20550161359a565b633e6c0de960e11b5f52600160045260245ffd5b9050155f6135fb565b900316915f80528060205261367d61366260405f2054613e40565b60015f528260205261367760405f2054613e40565b90613080565b6001600160401b038085810316911611613727575f5b600481106136a15750505050565b6136ab8184613514565b51906136b78184613528565b5082515f5260205260405f205491602081015192866136d68583613a11565b80150101876001600160401b03821610613714576001946136f692613a3e565b906137018386613528565b5090515f5260205260405f205501613693565b633e6c0de960e11b5f525f60045260245ffd5b63163da48960e01b5f52600160045260245ffd5b63163da48960e01b5f525f60045260245ffd5b1561375557565b60405162461bcd60e51b815260206004820152600d60248201526c494e56414c49445f52414e474560981b6044820152606490fd5b91908201809211612e2157565b9190916137a583821061374e565b6001600160401b036137b984836001613a62565b1615613888575f198301928311929083612e215781905b818111156137e35750505090505f905f90565b846137ee838361378a565b60011c916001600160401b03613805846001613e0e565b16156138745750612e2157828114801561384e575b61383e5760018101809111156137d057634e487b7160e01b5f52601160045260245ffd5b9350505063ffffffff6001921690565b5060018101808211612e215761386d6001600160401b03916001613e0e565b161561381a565b9250505f198101908111612e2157906137d0565b505f91508190565b61389b81151561374e565b6001600160401b036138af825f6007613a62565b1615613970575f905f198101908111612e21575b808211156138d35750505f905f90565b6138dd818361378a565b60011c906001600160401b036138f4836007613e0e565b161561395d575080158015613937575b613928575f198101908111156138c357634e487b7160e01b5f52601160045260245ffd5b91905063ffffffff6001921690565b505f198101818111612e21576139566001600160401b03916007613e0e565b1615613904565b915060018101809111612e2157906138c3565b505f905f90565b6040519061398660a083612e9e565b6004825260805f5b8181106139ee575050600e5f905b600482106139aa5750505090565b6001906040516139b981612e83565b84821c8152600385841984011c1660208201526139d68487613514565b526139e18386613514565b509101906003190161399c565b6020906040516139fd81612e83565b5f81525f838201528282870101520161398e565b60038211613a2a576001600160401b039160061b1c1690565b63b8710e2160e01b5f52600360045260245ffd5b9060038111613a2a576001600160401b03809160061b9316831b921b811690030190565b919092818414613e06578184101561373b57618000821161373b5792613a8a613a9091613977565b91613977565b925f925f935f5f966003915b613aa68388613514565b5197613ab28484613514565b519160208a01510199602083015101988251815114613d9c57600483518251900310613cef57998a6003613aa69c5116155f14613c4a576001600160401b0391613b1291613b00888b613528565b5090515f5260205260405f2054613ead565b1601935f985b8251600316613b5157613b3b6001600160401b0391613ab294613b00888b613528565b1601965f935b5f19019399509693979050613a9c565b9060016003845116145f14613bab57613ba1613ab293926001600160401b0392613b7b888b613528565b505f198651015f5260205283613b9460405f2054613e40565b160193613b00888b613528565b1601965f93613b41565b9794829160026003613ab2955116145f14613c2057613be86001600160401b0391613bd6888b613528565b5085515f5260205260405f2054613e73565b1601906001613bf78689613528565b509151015f526020526001600160401b03613c1560405f2054613e40565b160193600193613b41565b613c15906001600160401b039293613c38888b613528565b5090515f5260205260405f2054613e73565b9160016003845116145f14613c7a576001600160401b0391613c7091613b7b888b613528565b1601935f98613b18565b959060026003845116145f14613cd757613ca06001600160401b0391613bd6888b613528565b1601906001613caf8689613528565b509151015f526020526001600160401b03613ccd60405f2054613e40565b1601600198613b18565b613ccd906001600160401b039293613c38888b613528565b9750936001600160401b0391989250613d479082613d28869c613d166001988b9c9b613528565b508c515f5260205260405f2054613e73565b160192613d358b89613528565b508a515f5260205260405f2054613ead565b1601945101935b8551851015613d8a57600190613d648886613528565b50865f526020526001600160401b03613d8060405f2054613e40565b1601940193613d4e565b036001600160401b0316945092505050565b949698999591509650613db0929150613528565b5090515f5260205260405f2054945f958260061b1c825b828110613de8575050946001600160401b0394959185920390031601031690565b90966001906001600160401b038916801501019760401c9101613dc7565b925050505f90565b9061800081101561373b576003613e3892018160021c5f52602052600360405f2054911690613a11565b801515900390565b5f905f5b60048110613e555750506003190190565b90916001906001600160401b038416801501019260401c9101613e44565b905f918160061b1c815b60048110613e8f575050016003190190565b90926001906001600160401b038516801501019360401c9101613e7d565b5f905f5b838110613ebe5750500390565b90916001906001600160401b038416801501019260401c9101613eb1565b6001600160a01b039182168152918116602083015290911660408201526001600160801b0390911660608201526080019056fea2646970667358221220ade812c20ad2522c61320f7e0fa34f513c12e20279e1653da37aaeae845577bf64736f6c634300081e0033",
    "sourcePath": "e:/Blockchain/Coding/onchain-clob-dex/contracts/src/ClobPair.sol",
    "compiler": {
        "name": "solc",
        "version": "0.8.30+commit.73712a01"
    },
    "functionHashes": {
        "baseToken()": "c55dae63",
        "cancelOrder((address,address,address,uint256,uint256,bool,uint256,uint256))": "892232fe",
        "cancelOrderByHash(bytes32)": "00b2e678",
        "factory()": "c45a0155",
        "getBestAsk()": "98121e16",
        "getBestBid()": "2225cf31",
        "getOrderInfo(bytes32)": "768c6ec0",
        "getPairInfo()": "56b35b0e",
        "getPriceLevel(uint256)": "800a4bfe",
        "getUserOrders(address)": "63c69f08",
        "getVault()": "8d928af8",
        "orderHashToId(bytes32)": "841d9ab7",
        "orderIdToHash(uint64)": "6e9b8c45",
        "orderIsBid(uint64)": "1216ff5e",
        "orderTickIndex(uint64)": "f19f3224",
        "placeLimitOrder((address,address,address,uint256,uint256,bool,uint256,uint256))": "c1a7fd60",
        "quoteToken()": "217a4b70",
        "tickSize()": "f210d087",
        "vault()": "fbfa77cf"
    },
    "gasEstimates": {
        "creation": {
            "codeDepositCost": "3239400",
            "executionCost": "infinite",
            "totalCost": "infinite"
        },
        "external": {
            "baseToken()": "infinite",
            "cancelOrder((address,address,address,uint256,uint256,bool,uint256,uint256))": "infinite",
            "cancelOrderByHash(bytes32)": "infinite",
            "factory()": "infinite",
            "getBestAsk()": "infinite",
            "getBestBid()": "infinite",
            "getOrderInfo(bytes32)": "9598",
            "getPairInfo()": "infinite",
            "getPriceLevel(uint256)": "infinite",
            "getUserOrders(address)": "infinite",
            "getVault()": "infinite",
            "orderHashToId(bytes32)": "2536",
            "orderIdToHash(uint64)": "2498",
            "orderIsBid(uint64)": "2400",
            "orderTickIndex(uint64)": "2724",
            "placeLimitOrder((address,address,address,uint256,uint256,bool,uint256,uint256))": "infinite",
            "quoteToken()": "infinite",
            "tickSize()": "infinite",
            "vault()": "infinite"
        },
        "internal": {
            "_enqueue(struct ClobPair.BookSide storage pointer,uint32,struct OrderStructs.LimitOrder memory)": "infinite",
            "_executeTrade(address,address,uint128,uint256,bool)": "infinite",
            "_fillAtLevel(struct ClobPair.BookSide storage pointer,uint32,address,uint128,bool)": "infinite",
            "_findBestAsk(uint32)": "infinite",
            "_findBestBid(uint32)": "infinite",
            "_findFirstNonZero(struct SegmentedSegmentTree.Core storage pointer,uint256,uint256)": "infinite",
            "_findLastNonZero(struct SegmentedSegmentTree.Core storage pointer,uint256,uint256)": "infinite",
            "_hashOrder(struct OrderStructs.LimitOrder calldata)": "infinite",
            "_isExpired(uint64)": "69",
            "_matchAgainstAsks(address,uint128,uint32)": "infinite",
            "_matchAgainstBids(address,uint128,uint32)": "infinite",
            "_matchOrder(struct OrderStructs.LimitOrder calldata)": "infinite",
            "_partialFill(struct ClobPair.BookSide storage pointer,uint32,uint64,uint128)": "infinite",
            "_removeFromUserOrders(address,bytes32)": "infinite",
            "_removeOrder(struct ClobPair.BookSide storage pointer,uint32,uint64)": "infinite",
            "_tickIndex(uint256)": "infinite"
        }
    }
}